{
  "_format": "hh-sol-artifact-1",
  "contractName": "Twitter",
  "sourceName": "contracts/Twitter.sol",
  "abi": [
    {
      "inputs": [],
      "stateMutability": "payable",
      "type": "constructor"
    },
    {
      "anonymous": false,
      "inputs": [
        {
          "indexed": true,
          "internalType": "address",
          "name": "owner",
          "type": "address"
        },
        {
          "indexed": true,
          "internalType": "address",
          "name": "approved",
          "type": "address"
        },
        {
          "indexed": true,
          "internalType": "uint256",
          "name": "tokenId",
          "type": "uint256"
        }
      ],
      "name": "Approval",
      "type": "event"
    },
    {
      "anonymous": false,
      "inputs": [
        {
          "indexed": true,
          "internalType": "address",
          "name": "owner",
          "type": "address"
        },
        {
          "indexed": true,
          "internalType": "address",
          "name": "operator",
          "type": "address"
        },
        {
          "indexed": false,
          "internalType": "bool",
          "name": "approved",
          "type": "bool"
        }
      ],
      "name": "ApprovalForAll",
      "type": "event"
    },
    {
      "anonymous": false,
      "inputs": [
        {
          "indexed": true,
          "internalType": "address",
          "name": "from",
          "type": "address"
        },
        {
          "indexed": true,
          "internalType": "address",
          "name": "to",
          "type": "address"
        },
        {
          "indexed": true,
          "internalType": "uint256",
          "name": "tokenId",
          "type": "uint256"
        }
      ],
      "name": "Transfer",
      "type": "event"
    },
    {
      "inputs": [
        {
          "internalType": "address",
          "name": "to",
          "type": "address"
        },
        {
          "internalType": "uint256",
          "name": "tokenId",
          "type": "uint256"
        }
      ],
      "name": "approve",
      "outputs": [],
      "stateMutability": "nonpayable",
      "type": "function"
    },
    {
      "inputs": [
        {
          "internalType": "address",
          "name": "owner",
          "type": "address"
        }
      ],
      "name": "balanceOf",
      "outputs": [
        {
          "internalType": "uint256",
          "name": "",
          "type": "uint256"
        }
      ],
      "stateMutability": "view",
      "type": "function"
    },
    {
      "inputs": [
        {
          "internalType": "uint256",
          "name": "tokenId",
          "type": "uint256"
        }
      ],
      "name": "getApproved",
      "outputs": [
        {
          "internalType": "address",
          "name": "",
          "type": "address"
        }
      ],
      "stateMutability": "view",
      "type": "function"
    },
    {
      "inputs": [
        {
          "internalType": "address",
          "name": "owner",
          "type": "address"
        },
        {
          "internalType": "address",
          "name": "operator",
          "type": "address"
        }
      ],
      "name": "isApprovedForAll",
      "outputs": [
        {
          "internalType": "bool",
          "name": "",
          "type": "bool"
        }
      ],
      "stateMutability": "view",
      "type": "function"
    },
    {
      "inputs": [],
      "name": "name",
      "outputs": [
        {
          "internalType": "string",
          "name": "",
          "type": "string"
        }
      ],
      "stateMutability": "view",
      "type": "function"
    },
    {
      "inputs": [
        {
          "internalType": "uint256",
          "name": "tokenId",
          "type": "uint256"
        }
      ],
      "name": "ownerOf",
      "outputs": [
        {
          "internalType": "address",
          "name": "",
          "type": "address"
        }
      ],
      "stateMutability": "view",
      "type": "function"
    },
    {
      "inputs": [
        {
          "internalType": "string",
          "name": "",
          "type": "string"
        }
      ],
      "name": "peoples",
      "outputs": [
        {
          "internalType": "address",
          "name": "",
          "type": "address"
        }
      ],
      "stateMutability": "view",
      "type": "function"
    },
    {
      "inputs": [
        {
          "internalType": "string",
          "name": "url",
          "type": "string"
        },
        {
          "internalType": "string",
          "name": "user_name",
          "type": "string"
        }
      ],
      "name": "register",
      "outputs": [],
      "stateMutability": "nonpayable",
      "type": "function"
    },
    {
      "inputs": [
        {
          "internalType": "address",
          "name": "from",
          "type": "address"
        },
        {
          "internalType": "address",
          "name": "to",
          "type": "address"
        },
        {
          "internalType": "uint256",
          "name": "tokenId",
          "type": "uint256"
        }
      ],
      "name": "safeTransferFrom",
      "outputs": [],
      "stateMutability": "nonpayable",
      "type": "function"
    },
    {
      "inputs": [
        {
          "internalType": "address",
          "name": "from",
          "type": "address"
        },
        {
          "internalType": "address",
          "name": "to",
          "type": "address"
        },
        {
          "internalType": "uint256",
          "name": "tokenId",
          "type": "uint256"
        },
        {
          "internalType": "bytes",
          "name": "data",
          "type": "bytes"
        }
      ],
      "name": "safeTransferFrom",
      "outputs": [],
      "stateMutability": "nonpayable",
      "type": "function"
    },
    {
      "inputs": [
        {
          "internalType": "address",
          "name": "operator",
          "type": "address"
        },
        {
          "internalType": "bool",
          "name": "approved",
          "type": "bool"
        }
      ],
      "name": "setApprovalForAll",
      "outputs": [],
      "stateMutability": "nonpayable",
      "type": "function"
    },
    {
      "inputs": [
        {
          "internalType": "bytes4",
          "name": "interfaceId",
          "type": "bytes4"
        }
      ],
      "name": "supportsInterface",
      "outputs": [
        {
          "internalType": "bool",
          "name": "",
          "type": "bool"
        }
      ],
      "stateMutability": "view",
      "type": "function"
    },
    {
      "inputs": [],
      "name": "symbol",
      "outputs": [
        {
          "internalType": "string",
          "name": "",
          "type": "string"
        }
      ],
      "stateMutability": "view",
      "type": "function"
    },
    {
      "inputs": [
        {
          "internalType": "uint256",
          "name": "tokenId",
          "type": "uint256"
        }
      ],
      "name": "tokenURI",
      "outputs": [
        {
          "internalType": "string",
          "name": "",
          "type": "string"
        }
      ],
      "stateMutability": "view",
      "type": "function"
    },
    {
      "inputs": [
        {
          "internalType": "address",
          "name": "from",
          "type": "address"
        },
        {
          "internalType": "address",
          "name": "to",
          "type": "address"
        },
        {
          "internalType": "uint256",
          "name": "tokenId",
          "type": "uint256"
        }
      ],
      "name": "transferFrom",
      "outputs": [],
      "stateMutability": "nonpayable",
      "type": "function"
    }
  ],
  "bytecode": "0x60806040526040518060600160405280602381526020016200323a602391396040518060400160405280601081526020017f4554482d494e4449412d44594e414d4f0000000000000000000000000000000081525081600090805190602001906200006c929190620001a5565b50806001908051906020019062000085929190620001a5565b505050620000d36040518060400160405280601e81526020017f5477697474657220436f6e747261637420496e6974696c697a65642e2e2e0000815250620000d960201b62000c391760201c565b62000382565b6200017981604051602401620000f09190620002f9565b6040516020818303038152906040527f41304fac000000000000000000000000000000000000000000000000000000007bffffffffffffffffffffffffffffffffffffffffffffffffffffffff19166020820180517bffffffffffffffffffffffffffffffffffffffffffffffffffffffff83818316178352505050506200017c60201b60201c565b50565b60008151905060006a636f6e736f6c652e6c6f679050602083016000808483855afa5050505050565b828054620001b3906200034c565b90600052602060002090601f016020900481019282620001d7576000855562000223565b82601f10620001f257805160ff191683800117855562000223565b8280016001018555821562000223579182015b828111156200022257825182559160200191906001019062000205565b5b50905062000232919062000236565b5090565b5b808211156200025157600081600090555060010162000237565b5090565b600081519050919050565b600082825260208201905092915050565b60005b838110156200029157808201518184015260208101905062000274565b83811115620002a1576000848401525b50505050565b6000601f19601f8301169050919050565b6000620002c58262000255565b620002d1818562000260565b9350620002e381856020860162000271565b620002ee81620002a7565b840191505092915050565b60006020820190508181036000830152620003158184620002b8565b905092915050565b7f4e487b7100000000000000000000000000000000000000000000000000000000600052602260045260246000fd5b600060028204905060018216806200036557607f821691505b602082108114156200037c576200037b6200031d565b5b50919050565b612ea880620003926000396000f3fe608060405234801561001057600080fd5b50600436106100f55760003560e01c80636352211e11610097578063b88d4fde11610066578063b88d4fde14610282578063beb38bd61461029e578063c87b56dd146102ce578063e985e9c5146102fe576100f5565b80636352211e146101e857806370a082311461021857806395d89b4114610248578063a22cb46514610266576100f5565b8063095ea7b3116100d3578063095ea7b31461017857806323b872dd146101945780633ffbd47f146101b057806342842e0e146101cc576100f5565b806301ffc9a7146100fa57806306fdde031461012a578063081812fc14610148575b600080fd5b610114600480360381019061010f9190611e06565b61032e565b6040516101219190611e4e565b60405180910390f35b610132610410565b60405161013f9190611f02565b60405180910390f35b610162600480360381019061015d9190611f5a565b6104a2565b60405161016f9190611fc8565b60405180910390f35b610192600480360381019061018d919061200f565b6104e8565b005b6101ae60048036038101906101a9919061204f565b610600565b005b6101ca60048036038101906101c59190612237565b610660565b005b6101e660048036038101906101e1919061204f565b6107e0565b005b61020260048036038101906101fd9190611f5a565b610800565b60405161020f9190611fc8565b60405180910390f35b610232600480360381019061022d91906122b3565b610887565b60405161023f91906122ef565b60405180910390f35b61025061093f565b60405161025d9190611f02565b60405180910390f35b610280600480360381019061027b9190612336565b6109d1565b005b61029c60048036038101906102979190612417565b6109e7565b005b6102b860048036038101906102b3919061249a565b610a49565b6040516102c59190611fc8565b60405180910390f35b6102e860048036038101906102e39190611f5a565b610a92565b6040516102f59190611f02565b60405180910390f35b610318600480360381019061031391906124e3565b610ba5565b6040516103259190611e4e565b60405180910390f35b60007f80ac58cd000000000000000000000000000000000000000000000000000000007bffffffffffffffffffffffffffffffffffffffffffffffffffffffff1916827bffffffffffffffffffffffffffffffffffffffffffffffffffffffff191614806103f957507f5b5e139f000000000000000000000000000000000000000000000000000000007bffffffffffffffffffffffffffffffffffffffffffffffffffffffff1916827bffffffffffffffffffffffffffffffffffffffffffffffffffffffff1916145b80610409575061040882610cd2565b5b9050919050565b60606000805461041f90612552565b80601f016020809104026020016040519081016040528092919081815260200182805461044b90612552565b80156104985780601f1061046d57610100808354040283529160200191610498565b820191906000526020600020905b81548152906001019060200180831161047b57829003601f168201915b5050505050905090565b60006104ad82610d3c565b6004600083815260200190815260200160002060009054906101000a900473ffffffffffffffffffffffffffffffffffffffff169050919050565b60006104f382610800565b90508073ffffffffffffffffffffffffffffffffffffffff168373ffffffffffffffffffffffffffffffffffffffff161415610564576040517f08c379a000000000000000000000000000000000000000000000000000000000815260040161055b906125f6565b60405180910390fd5b8073ffffffffffffffffffffffffffffffffffffffff16610583610d87565b73ffffffffffffffffffffffffffffffffffffffff1614806105b257506105b1816105ac610d87565b610ba5565b5b6105f1576040517f08c379a00000000000000000000000000000000000000000000000000000000081526004016105e890612688565b60405180910390fd5b6105fb8383610d8f565b505050565b61061161060b610d87565b82610e48565b610650576040517f08c379a00000000000000000000000000000000000000000000000000000000081526004016106479061271a565b60405180910390fd5b61065b838383610edd565b505050565b600073ffffffffffffffffffffffffffffffffffffffff166008826040516106889190612776565b908152602001604051809103902060009054906101000a900473ffffffffffffffffffffffffffffffffffffffff1673ffffffffffffffffffffffffffffffffffffffff161461070d576040517f08c379a0000000000000000000000000000000000000000000000000000000008152600401610704906127d9565b60405180910390fd5b3360088260405161071e9190612776565b908152602001604051809103902060006101000a81548173ffffffffffffffffffffffffffffffffffffffff021916908373ffffffffffffffffffffffffffffffffffffffff160217905550600061077660076111d7565b905061078233826111e5565b6107d08185858080601f016020809104026020016040519081016040528093929190818152602001838380828437600081840152601f19601f82011690508083019250505050505050611203565b6107da6007611277565b50505050565b6107fb838383604051806020016040528060008152506109e7565b505050565b60008061080c8361128d565b9050600073ffffffffffffffffffffffffffffffffffffffff168173ffffffffffffffffffffffffffffffffffffffff16141561087e576040517f08c379a000000000000000000000000000000000000000000000000000000000815260040161087590612845565b60405180910390fd5b80915050919050565b60008073ffffffffffffffffffffffffffffffffffffffff168273ffffffffffffffffffffffffffffffffffffffff1614156108f8576040517f08c379a00000000000000000000000000000000000000000000000000000000081526004016108ef906128d7565b60405180910390fd5b600360008373ffffffffffffffffffffffffffffffffffffffff1673ffffffffffffffffffffffffffffffffffffffff168152602001908152602001600020549050919050565b60606001805461094e90612552565b80601f016020809104026020016040519081016040528092919081815260200182805461097a90612552565b80156109c75780601f1061099c576101008083540402835291602001916109c7565b820191906000526020600020905b8154815290600101906020018083116109aa57829003601f168201915b5050505050905090565b6109e36109dc610d87565b83836112ca565b5050565b6109f86109f2610d87565b83610e48565b610a37576040517f08c379a0000000000000000000000000000000000000000000000000000000008152600401610a2e9061271a565b60405180910390fd5b610a4384848484611437565b50505050565b6008818051602081018201805184825260208301602085012081835280955050505050506000915054906101000a900473ffffffffffffffffffffffffffffffffffffffff1681565b6060610a9d82610d3c565b6000600660008481526020019081526020016000208054610abd90612552565b80601f0160208091040260200160405190810160405280929190818152602001828054610ae990612552565b8015610b365780601f10610b0b57610100808354040283529160200191610b36565b820191906000526020600020905b815481529060010190602001808311610b1957829003601f168201915b505050505090506000610b47611493565b9050600081511415610b5d578192505050610ba0565b600082511115610b92578082604051602001610b7a9291906128f7565b60405160208183030381529060405292505050610ba0565b610b9b846114aa565b925050505b919050565b6000600560008473ffffffffffffffffffffffffffffffffffffffff1673ffffffffffffffffffffffffffffffffffffffff16815260200190815260200160002060008373ffffffffffffffffffffffffffffffffffffffff1673ffffffffffffffffffffffffffffffffffffffff16815260200190815260200160002060009054906101000a900460ff16905092915050565b610ccf81604051602401610c4d9190611f02565b6040516020818303038152906040527f41304fac000000000000000000000000000000000000000000000000000000007bffffffffffffffffffffffffffffffffffffffffffffffffffffffff19166020820180517bffffffffffffffffffffffffffffffffffffffffffffffffffffffff8381831617835250505050611512565b50565b60007f01ffc9a7000000000000000000000000000000000000000000000000000000007bffffffffffffffffffffffffffffffffffffffffffffffffffffffff1916827bffffffffffffffffffffffffffffffffffffffffffffffffffffffff1916149050919050565b610d458161153b565b610d84576040517f08c379a0000000000000000000000000000000000000000000000000000000008152600401610d7b90612845565b60405180910390fd5b50565b600033905090565b816004600083815260200190815260200160002060006101000a81548173ffffffffffffffffffffffffffffffffffffffff021916908373ffffffffffffffffffffffffffffffffffffffff160217905550808273ffffffffffffffffffffffffffffffffffffffff16610e0283610800565b73ffffffffffffffffffffffffffffffffffffffff167f8c5be1e5ebec7d5bd14f71427d1e84f3dd0314c0f7b2291e5b200ac8c7c3b92560405160405180910390a45050565b600080610e5483610800565b90508073ffffffffffffffffffffffffffffffffffffffff168473ffffffffffffffffffffffffffffffffffffffff161480610e965750610e958185610ba5565b5b80610ed457508373ffffffffffffffffffffffffffffffffffffffff16610ebc846104a2565b73ffffffffffffffffffffffffffffffffffffffff16145b91505092915050565b8273ffffffffffffffffffffffffffffffffffffffff16610efd82610800565b73ffffffffffffffffffffffffffffffffffffffff1614610f53576040517f08c379a0000000000000000000000000000000000000000000000000000000008152600401610f4a9061298d565b60405180910390fd5b600073ffffffffffffffffffffffffffffffffffffffff168273ffffffffffffffffffffffffffffffffffffffff161415610fc3576040517f08c379a0000000000000000000000000000000000000000000000000000000008152600401610fba90612a1f565b60405180910390fd5b610fd0838383600161157c565b8273ffffffffffffffffffffffffffffffffffffffff16610ff082610800565b73ffffffffffffffffffffffffffffffffffffffff1614611046576040517f08c379a000000000000000000000000000000000000000000000000000000000815260040161103d9061298d565b60405180910390fd5b6004600082815260200190815260200160002060006101000a81549073ffffffffffffffffffffffffffffffffffffffff02191690556001600360008573ffffffffffffffffffffffffffffffffffffffff1673ffffffffffffffffffffffffffffffffffffffff168152602001908152602001600020600082825403925050819055506001600360008473ffffffffffffffffffffffffffffffffffffffff1673ffffffffffffffffffffffffffffffffffffffff16815260200190815260200160002060008282540192505081905550816002600083815260200190815260200160002060006101000a81548173ffffffffffffffffffffffffffffffffffffffff021916908373ffffffffffffffffffffffffffffffffffffffff160217905550808273ffffffffffffffffffffffffffffffffffffffff168473ffffffffffffffffffffffffffffffffffffffff167fddf252ad1be2c89b69c2b068fc378daa952ba7f163c4a11628f55a4df523b3ef60405160405180910390a46111d283838360016116a2565b505050565b600081600001549050919050565b6111ff8282604051806020016040528060008152506116a8565b5050565b61120c8261153b565b61124b576040517f08c379a000000000000000000000000000000000000000000000000000000000815260040161124290612ab1565b60405180910390fd5b80600660008481526020019081526020016000209080519060200190611272929190611cf7565b505050565b6001816000016000828254019250508190555050565b60006002600083815260200190815260200160002060009054906101000a900473ffffffffffffffffffffffffffffffffffffffff169050919050565b8173ffffffffffffffffffffffffffffffffffffffff168373ffffffffffffffffffffffffffffffffffffffff161415611339576040517f08c379a000000000000000000000000000000000000000000000000000000000815260040161133090612b1d565b60405180910390fd5b80600560008573ffffffffffffffffffffffffffffffffffffffff1673ffffffffffffffffffffffffffffffffffffffff16815260200190815260200160002060008473ffffffffffffffffffffffffffffffffffffffff1673ffffffffffffffffffffffffffffffffffffffff16815260200190815260200160002060006101000a81548160ff0219169083151502179055508173ffffffffffffffffffffffffffffffffffffffff168373ffffffffffffffffffffffffffffffffffffffff167f17307eab39ab6107e8899845ad3d59bd9653f200f220920489ca2b5937696c318360405161142a9190611e4e565b60405180910390a3505050565b611442848484610edd565b61144e84848484611703565b61148d576040517f08c379a000000000000000000000000000000000000000000000000000000000815260040161148490612baf565b60405180910390fd5b50505050565b606060405180602001604052806000815250905090565b60606114b582610d3c565b60006114bf611493565b905060008151116114df576040518060200160405280600081525061150a565b806114e98461188b565b6040516020016114fa9291906128f7565b6040516020818303038152906040525b915050919050565b60008151905060006a636f6e736f6c652e6c6f679050602083016000808483855afa5050505050565b60008073ffffffffffffffffffffffffffffffffffffffff1661155d8361128d565b73ffffffffffffffffffffffffffffffffffffffff1614159050919050565b600181111561169c57600073ffffffffffffffffffffffffffffffffffffffff168473ffffffffffffffffffffffffffffffffffffffff16146116105780600360008673ffffffffffffffffffffffffffffffffffffffff1673ffffffffffffffffffffffffffffffffffffffff16815260200190815260200160002060008282546116089190612bfe565b925050819055505b600073ffffffffffffffffffffffffffffffffffffffff168373ffffffffffffffffffffffffffffffffffffffff161461169b5780600360008573ffffffffffffffffffffffffffffffffffffffff1673ffffffffffffffffffffffffffffffffffffffff16815260200190815260200160002060008282546116939190612c32565b925050819055505b5b50505050565b50505050565b6116b28383611963565b6116bf6000848484611703565b6116fe576040517f08c379a00000000000000000000000000000000000000000000000000000000081526004016116f590612baf565b60405180910390fd5b505050565b60006117248473ffffffffffffffffffffffffffffffffffffffff16611b81565b1561187e578373ffffffffffffffffffffffffffffffffffffffff1663150b7a0261174d610d87565b8786866040518563ffffffff1660e01b815260040161176f9493929190612cdd565b6020604051808303816000875af19250505080156117ab57506040513d601f19601f820116820180604052508101906117a89190612d3e565b60015b61182e573d80600081146117db576040519150601f19603f3d011682016040523d82523d6000602084013e6117e0565b606091505b50600081511415611826576040517f08c379a000000000000000000000000000000000000000000000000000000000815260040161181d90612baf565b60405180910390fd5b805181602001fd5b63150b7a0260e01b7bffffffffffffffffffffffffffffffffffffffffffffffffffffffff1916817bffffffffffffffffffffffffffffffffffffffffffffffffffffffff191614915050611883565b600190505b949350505050565b60606000600161189a84611ba4565b01905060008167ffffffffffffffff8111156118b9576118b861210c565b5b6040519080825280601f01601f1916602001820160405280156118eb5781602001600182028036833780820191505090505b509050600082602001820190505b600115611958578080600190039150507f3031323334353637383961626364656600000000000000000000000000000000600a86061a8153600a858161194257611941612d6b565b5b049450600085141561195357611958565b6118f9565b819350505050919050565b600073ffffffffffffffffffffffffffffffffffffffff168273ffffffffffffffffffffffffffffffffffffffff1614156119d3576040517f08c379a00000000000000000000000000000000000000000000000000000000081526004016119ca90612de6565b60405180910390fd5b6119dc8161153b565b15611a1c576040517f08c379a0000000000000000000000000000000000000000000000000000000008152600401611a1390612e52565b60405180910390fd5b611a2a60008383600161157c565b611a338161153b565b15611a73576040517f08c379a0000000000000000000000000000000000000000000000000000000008152600401611a6a90612e52565b60405180910390fd5b6001600360008473ffffffffffffffffffffffffffffffffffffffff1673ffffffffffffffffffffffffffffffffffffffff16815260200190815260200160002060008282540192505081905550816002600083815260200190815260200160002060006101000a81548173ffffffffffffffffffffffffffffffffffffffff021916908373ffffffffffffffffffffffffffffffffffffffff160217905550808273ffffffffffffffffffffffffffffffffffffffff16600073ffffffffffffffffffffffffffffffffffffffff167fddf252ad1be2c89b69c2b068fc378daa952ba7f163c4a11628f55a4df523b3ef60405160405180910390a4611b7d6000838360016116a2565b5050565b6000808273ffffffffffffffffffffffffffffffffffffffff163b119050919050565b600080600090507a184f03e93ff9f4daa797ed6e38ed64bf6a1f0100000000000000008310611c02577a184f03e93ff9f4daa797ed6e38ed64bf6a1f0100000000000000008381611bf857611bf7612d6b565b5b0492506040810190505b6d04ee2d6d415b85acef81000000008310611c3f576d04ee2d6d415b85acef81000000008381611c3557611c34612d6b565b5b0492506020810190505b662386f26fc100008310611c6e57662386f26fc100008381611c6457611c63612d6b565b5b0492506010810190505b6305f5e1008310611c97576305f5e1008381611c8d57611c8c612d6b565b5b0492506008810190505b6127108310611cbc576127108381611cb257611cb1612d6b565b5b0492506004810190505b60648310611cdf5760648381611cd557611cd4612d6b565b5b0492506002810190505b600a8310611cee576001810190505b80915050919050565b828054611d0390612552565b90600052602060002090601f016020900481019282611d255760008555611d6c565b82601f10611d3e57805160ff1916838001178555611d6c565b82800160010185558215611d6c579182015b82811115611d6b578251825591602001919060010190611d50565b5b509050611d799190611d7d565b5090565b5b80821115611d96576000816000905550600101611d7e565b5090565b6000604051905090565b600080fd5b600080fd5b60007fffffffff0000000000000000000000000000000000000000000000000000000082169050919050565b611de381611dae565b8114611dee57600080fd5b50565b600081359050611e0081611dda565b92915050565b600060208284031215611e1c57611e1b611da4565b5b6000611e2a84828501611df1565b91505092915050565b60008115159050919050565b611e4881611e33565b82525050565b6000602082019050611e636000830184611e3f565b92915050565b600081519050919050565b600082825260208201905092915050565b60005b83811015611ea3578082015181840152602081019050611e88565b83811115611eb2576000848401525b50505050565b6000601f19601f8301169050919050565b6000611ed482611e69565b611ede8185611e74565b9350611eee818560208601611e85565b611ef781611eb8565b840191505092915050565b60006020820190508181036000830152611f1c8184611ec9565b905092915050565b6000819050919050565b611f3781611f24565b8114611f4257600080fd5b50565b600081359050611f5481611f2e565b92915050565b600060208284031215611f7057611f6f611da4565b5b6000611f7e84828501611f45565b91505092915050565b600073ffffffffffffffffffffffffffffffffffffffff82169050919050565b6000611fb282611f87565b9050919050565b611fc281611fa7565b82525050565b6000602082019050611fdd6000830184611fb9565b92915050565b611fec81611fa7565b8114611ff757600080fd5b50565b60008135905061200981611fe3565b92915050565b6000806040838503121561202657612025611da4565b5b600061203485828601611ffa565b925050602061204585828601611f45565b9150509250929050565b60008060006060848603121561206857612067611da4565b5b600061207686828701611ffa565b935050602061208786828701611ffa565b925050604061209886828701611f45565b9150509250925092565b600080fd5b600080fd5b600080fd5b60008083601f8401126120c7576120c66120a2565b5b8235905067ffffffffffffffff8111156120e4576120e36120a7565b5b602083019150836001820283011115612100576120ff6120ac565b5b9250929050565b600080fd5b7f4e487b7100000000000000000000000000000000000000000000000000000000600052604160045260246000fd5b61214482611eb8565b810181811067ffffffffffffffff821117156121635761216261210c565b5b80604052505050565b6000612176611d9a565b9050612182828261213b565b919050565b600067ffffffffffffffff8211156121a2576121a161210c565b5b6121ab82611eb8565b9050602081019050919050565b82818337600083830152505050565b60006121da6121d584612187565b61216c565b9050828152602081018484840111156121f6576121f5612107565b5b6122018482856121b8565b509392505050565b600082601f83011261221e5761221d6120a2565b5b813561222e8482602086016121c7565b91505092915050565b6000806000604084860312156122505761224f611da4565b5b600084013567ffffffffffffffff81111561226e5761226d611da9565b5b61227a868287016120b1565b9350935050602084013567ffffffffffffffff81111561229d5761229c611da9565b5b6122a986828701612209565b9150509250925092565b6000602082840312156122c9576122c8611da4565b5b60006122d784828501611ffa565b91505092915050565b6122e981611f24565b82525050565b600060208201905061230460008301846122e0565b92915050565b61231381611e33565b811461231e57600080fd5b50565b6000813590506123308161230a565b92915050565b6000806040838503121561234d5761234c611da4565b5b600061235b85828601611ffa565b925050602061236c85828601612321565b9150509250929050565b600067ffffffffffffffff8211156123915761239061210c565b5b61239a82611eb8565b9050602081019050919050565b60006123ba6123b584612376565b61216c565b9050828152602081018484840111156123d6576123d5612107565b5b6123e18482856121b8565b509392505050565b600082601f8301126123fe576123fd6120a2565b5b813561240e8482602086016123a7565b91505092915050565b6000806000806080858703121561243157612430611da4565b5b600061243f87828801611ffa565b945050602061245087828801611ffa565b935050604061246187828801611f45565b925050606085013567ffffffffffffffff81111561248257612481611da9565b5b61248e878288016123e9565b91505092959194509250565b6000602082840312156124b0576124af611da4565b5b600082013567ffffffffffffffff8111156124ce576124cd611da9565b5b6124da84828501612209565b91505092915050565b600080604083850312156124fa576124f9611da4565b5b600061250885828601611ffa565b925050602061251985828601611ffa565b9150509250929050565b7f4e487b7100000000000000000000000000000000000000000000000000000000600052602260045260246000fd5b6000600282049050600182168061256a57607f821691505b6020821081141561257e5761257d612523565b5b50919050565b7f4552433732313a20617070726f76616c20746f2063757272656e74206f776e6560008201527f7200000000000000000000000000000000000000000000000000000000000000602082015250565b60006125e0602183611e74565b91506125eb82612584565b604082019050919050565b6000602082019050818103600083015261260f816125d3565b9050919050565b7f4552433732313a20617070726f76652063616c6c6572206973206e6f7420746f60008201527f6b656e206f776e6572206f7220617070726f76656420666f7220616c6c000000602082015250565b6000612672603d83611e74565b915061267d82612616565b604082019050919050565b600060208201905081810360008301526126a181612665565b9050919050565b7f4552433732313a2063616c6c6572206973206e6f7420746f6b656e206f776e6560008201527f72206f7220617070726f76656400000000000000000000000000000000000000602082015250565b6000612704602d83611e74565b915061270f826126a8565b604082019050919050565b60006020820190508181036000830152612733816126f7565b9050919050565b600081905092915050565b600061275082611e69565b61275a818561273a565b935061276a818560208601611e85565b80840191505092915050565b60006127828284612745565b915081905092915050565b7f4e465420616c7265616479204d696e7465642121000000000000000000000000600082015250565b60006127c3601483611e74565b91506127ce8261278d565b602082019050919050565b600060208201905081810360008301526127f2816127b6565b9050919050565b7f4552433732313a20696e76616c696420746f6b656e2049440000000000000000600082015250565b600061282f601883611e74565b915061283a826127f9565b602082019050919050565b6000602082019050818103600083015261285e81612822565b9050919050565b7f4552433732313a2061646472657373207a65726f206973206e6f74206120766160008201527f6c6964206f776e65720000000000000000000000000000000000000000000000602082015250565b60006128c1602983611e74565b91506128cc82612865565b604082019050919050565b600060208201905081810360008301526128f0816128b4565b9050919050565b60006129038285612745565b915061290f8284612745565b91508190509392505050565b7f4552433732313a207472616e736665722066726f6d20696e636f72726563742060008201527f6f776e6572000000000000000000000000000000000000000000000000000000602082015250565b6000612977602583611e74565b91506129828261291b565b604082019050919050565b600060208201905081810360008301526129a68161296a565b9050919050565b7f4552433732313a207472616e7366657220746f20746865207a65726f2061646460008201527f7265737300000000000000000000000000000000000000000000000000000000602082015250565b6000612a09602483611e74565b9150612a14826129ad565b604082019050919050565b60006020820190508181036000830152612a38816129fc565b9050919050565b7f45524337323155524953746f726167653a2055524920736574206f66206e6f6e60008201527f6578697374656e7420746f6b656e000000000000000000000000000000000000602082015250565b6000612a9b602e83611e74565b9150612aa682612a3f565b604082019050919050565b60006020820190508181036000830152612aca81612a8e565b9050919050565b7f4552433732313a20617070726f766520746f2063616c6c657200000000000000600082015250565b6000612b07601983611e74565b9150612b1282612ad1565b602082019050919050565b60006020820190508181036000830152612b3681612afa565b9050919050565b7f4552433732313a207472616e7366657220746f206e6f6e20455243373231526560008201527f63656976657220696d706c656d656e7465720000000000000000000000000000602082015250565b6000612b99603283611e74565b9150612ba482612b3d565b604082019050919050565b60006020820190508181036000830152612bc881612b8c565b9050919050565b7f4e487b7100000000000000000000000000000000000000000000000000000000600052601160045260246000fd5b6000612c0982611f24565b9150612c1483611f24565b925082821015612c2757612c26612bcf565b5b828203905092915050565b6000612c3d82611f24565b9150612c4883611f24565b9250827fffffffffffffffffffffffffffffffffffffffffffffffffffffffffffffffff03821115612c7d57612c7c612bcf565b5b828201905092915050565b600081519050919050565b600082825260208201905092915050565b6000612caf82612c88565b612cb98185612c93565b9350612cc9818560208601611e85565b612cd281611eb8565b840191505092915050565b6000608082019050612cf26000830187611fb9565b612cff6020830186611fb9565b612d0c60408301856122e0565b8181036060830152612d1e8184612ca4565b905095945050505050565b600081519050612d3881611dda565b92915050565b600060208284031215612d5457612d53611da4565b5b6000612d6284828501612d29565b91505092915050565b7f4e487b7100000000000000000000000000000000000000000000000000000000600052601260045260246000fd5b7f4552433732313a206d696e7420746f20746865207a65726f2061646472657373600082015250565b6000612dd0602083611e74565b9150612ddb82612d9a565b602082019050919050565b60006020820190508181036000830152612dff81612dc3565b9050919050565b7f4552433732313a20746f6b656e20616c7265616479206d696e74656400000000600082015250565b6000612e3c601c83611e74565b9150612e4782612e06565b602082019050919050565b60006020820190508181036000830152612e6b81612e2f565b905091905056fea26469706673582212205c4ebe16b171df795ba3786dd2672a23fb4acb174a9232da6f7826db8ce300d064736f6c634300080a003345544820496e646961205477697474657220436f6e7472616374202d2044594e414d4f",
  "linkReferences": {},
  "deployedLinkReferences": {}
}