{
  "_format": "hh-sol-artifact-1",
  "contractName": "Twitter",
  "sourceName": "contracts/Twitter.sol",
  "abi": [
    {
      "inputs": [],
      "stateMutability": "payable",
      "type": "constructor"
    },
    {
      "anonymous": false,
      "inputs": [
        {
          "indexed": true,
          "internalType": "address",
          "name": "owner",
          "type": "address"
        },
        {
          "indexed": true,
          "internalType": "address",
          "name": "approved",
          "type": "address"
        },
        {
          "indexed": true,
          "internalType": "uint256",
          "name": "tokenId",
          "type": "uint256"
        }
      ],
      "name": "Approval",
      "type": "event"
    },
    {
      "anonymous": false,
      "inputs": [
        {
          "indexed": true,
          "internalType": "address",
          "name": "owner",
          "type": "address"
        },
        {
          "indexed": true,
          "internalType": "address",
          "name": "operator",
          "type": "address"
        },
        {
          "indexed": false,
          "internalType": "bool",
          "name": "approved",
          "type": "bool"
        }
      ],
      "name": "ApprovalForAll",
      "type": "event"
    },
    {
      "anonymous": false,
      "inputs": [
        {
          "indexed": true,
          "internalType": "address",
          "name": "from",
          "type": "address"
        },
        {
          "indexed": true,
          "internalType": "address",
          "name": "to",
          "type": "address"
        },
        {
          "indexed": true,
          "internalType": "uint256",
          "name": "tokenId",
          "type": "uint256"
        }
      ],
      "name": "Transfer",
      "type": "event"
    },
    {
      "inputs": [
        {
          "internalType": "address",
          "name": "to",
          "type": "address"
        },
        {
          "internalType": "uint256",
          "name": "tokenId",
          "type": "uint256"
        }
      ],
      "name": "approve",
      "outputs": [],
      "stateMutability": "nonpayable",
      "type": "function"
    },
    {
      "inputs": [
        {
          "internalType": "address",
          "name": "owner",
          "type": "address"
        }
      ],
      "name": "balanceOf",
      "outputs": [
        {
          "internalType": "uint256",
          "name": "",
          "type": "uint256"
        }
      ],
      "stateMutability": "view",
      "type": "function"
    },
    {
      "inputs": [
        {
          "internalType": "uint256",
          "name": "tokenId",
          "type": "uint256"
        }
      ],
      "name": "getApproved",
      "outputs": [
        {
          "internalType": "address",
          "name": "",
          "type": "address"
        }
      ],
      "stateMutability": "view",
      "type": "function"
    },
    {
      "inputs": [
        {
          "internalType": "address",
          "name": "owner",
          "type": "address"
        },
        {
          "internalType": "address",
          "name": "operator",
          "type": "address"
        }
      ],
      "name": "isApprovedForAll",
      "outputs": [
        {
          "internalType": "bool",
          "name": "",
          "type": "bool"
        }
      ],
      "stateMutability": "view",
      "type": "function"
    },
    {
      "inputs": [],
      "name": "name",
      "outputs": [
        {
          "internalType": "string",
          "name": "",
          "type": "string"
        }
      ],
      "stateMutability": "view",
      "type": "function"
    },
    {
      "inputs": [
        {
          "internalType": "uint256",
          "name": "tokenId",
          "type": "uint256"
        }
      ],
      "name": "ownerOf",
      "outputs": [
        {
          "internalType": "address",
          "name": "",
          "type": "address"
        }
      ],
      "stateMutability": "view",
      "type": "function"
    },
    {
      "inputs": [
        {
          "internalType": "string",
          "name": "url",
          "type": "string"
        }
      ],
      "name": "register",
      "outputs": [],
      "stateMutability": "nonpayable",
      "type": "function"
    },
    {
      "inputs": [
        {
          "internalType": "address",
          "name": "from",
          "type": "address"
        },
        {
          "internalType": "address",
          "name": "to",
          "type": "address"
        },
        {
          "internalType": "uint256",
          "name": "tokenId",
          "type": "uint256"
        }
      ],
      "name": "safeTransferFrom",
      "outputs": [],
      "stateMutability": "nonpayable",
      "type": "function"
    },
    {
      "inputs": [
        {
          "internalType": "address",
          "name": "from",
          "type": "address"
        },
        {
          "internalType": "address",
          "name": "to",
          "type": "address"
        },
        {
          "internalType": "uint256",
          "name": "tokenId",
          "type": "uint256"
        },
        {
          "internalType": "bytes",
          "name": "data",
          "type": "bytes"
        }
      ],
      "name": "safeTransferFrom",
      "outputs": [],
      "stateMutability": "nonpayable",
      "type": "function"
    },
    {
      "inputs": [
        {
          "internalType": "address",
          "name": "operator",
          "type": "address"
        },
        {
          "internalType": "bool",
          "name": "approved",
          "type": "bool"
        }
      ],
      "name": "setApprovalForAll",
      "outputs": [],
      "stateMutability": "nonpayable",
      "type": "function"
    },
    {
      "inputs": [
        {
          "internalType": "bytes4",
          "name": "interfaceId",
          "type": "bytes4"
        }
      ],
      "name": "supportsInterface",
      "outputs": [
        {
          "internalType": "bool",
          "name": "",
          "type": "bool"
        }
      ],
      "stateMutability": "view",
      "type": "function"
    },
    {
      "inputs": [],
      "name": "symbol",
      "outputs": [
        {
          "internalType": "string",
          "name": "",
          "type": "string"
        }
      ],
      "stateMutability": "view",
      "type": "function"
    },
    {
      "inputs": [
        {
          "internalType": "uint256",
          "name": "tokenId",
          "type": "uint256"
        }
      ],
      "name": "tokenURI",
      "outputs": [
        {
          "internalType": "string",
          "name": "",
          "type": "string"
        }
      ],
      "stateMutability": "view",
      "type": "function"
    },
    {
      "inputs": [
        {
          "internalType": "address",
          "name": "from",
          "type": "address"
        },
        {
          "internalType": "address",
          "name": "to",
          "type": "address"
        },
        {
          "internalType": "uint256",
          "name": "tokenId",
          "type": "uint256"
        }
      ],
      "name": "transferFrom",
      "outputs": [],
      "stateMutability": "nonpayable",
      "type": "function"
    }
  ],
  "bytecode": "0x60806040526040518060600160405280602d815260200162002f0f602d91396040518060400160405280600e81526020017f4554482d494e4449412d5445535400000000000000000000000000000000000081525081600090805190602001906200006c929190620001a5565b50806001908051906020019062000085929190620001a5565b505050620000d36040518060400160405280601e81526020017f5477697474657220436f6e747261637420496e6974696c697a65642e2e2e0000815250620000d960201b62000aaa1760201c565b62000382565b6200017981604051602401620000f09190620002f9565b6040516020818303038152906040527f41304fac000000000000000000000000000000000000000000000000000000007bffffffffffffffffffffffffffffffffffffffffffffffffffffffff19166020820180517bffffffffffffffffffffffffffffffffffffffffffffffffffffffff83818316178352505050506200017c60201b60201c565b50565b60008151905060006a636f6e736f6c652e6c6f679050602083016000808483855afa5050505050565b828054620001b3906200034c565b90600052602060002090601f016020900481019282620001d7576000855562000223565b82601f10620001f257805160ff191683800117855562000223565b8280016001018555821562000223579182015b828111156200022257825182559160200191906001019062000205565b5b50905062000232919062000236565b5090565b5b808211156200025157600081600090555060010162000237565b5090565b600081519050919050565b600082825260208201905092915050565b60005b838110156200029157808201518184015260208101905062000274565b83811115620002a1576000848401525b50505050565b6000601f19601f8301169050919050565b6000620002c58262000255565b620002d1818562000260565b9350620002e381856020860162000271565b620002ee81620002a7565b840191505092915050565b60006020820190508181036000830152620003158184620002b8565b905092915050565b7f4e487b7100000000000000000000000000000000000000000000000000000000600052602260045260246000fd5b600060028204905060018216806200036557607f821691505b602082108114156200037c576200037b6200031d565b5b50919050565b612b7d80620003926000396000f3fe608060405234801561001057600080fd5b50600436106100ea5760003560e01c806370a082311161008c578063b88d4fde11610066578063b88d4fde1461025b578063c87b56dd14610277578063e985e9c5146102a7578063f2c298be146102d7576100ea565b806370a08231146101f157806395d89b4114610221578063a22cb4651461023f576100ea565b8063095ea7b3116100c8578063095ea7b31461016d57806323b872dd1461018957806342842e0e146101a55780636352211e146101c1576100ea565b806301ffc9a7146100ef57806306fdde031461011f578063081812fc1461013d575b600080fd5b61010960048036038101906101049190611c77565b6102f3565b6040516101169190611cbf565b60405180910390f35b6101276103d5565b6040516101349190611d73565b60405180910390f35b61015760048036038101906101529190611dcb565b610467565b6040516101649190611e39565b60405180910390f35b61018760048036038101906101829190611e80565b6104ad565b005b6101a3600480360381019061019e9190611ec0565b6105c5565b005b6101bf60048036038101906101ba9190611ec0565b610625565b005b6101db60048036038101906101d69190611dcb565b610645565b6040516101e89190611e39565b60405180910390f35b61020b60048036038101906102069190611f13565b6106cc565b6040516102189190611f4f565b60405180910390f35b610229610784565b6040516102369190611d73565b60405180910390f35b61025960048036038101906102549190611f96565b610816565b005b6102756004803603810190610270919061210b565b61082c565b005b610291600480360381019061028c9190611dcb565b61088e565b60405161029e9190611d73565b60405180910390f35b6102c160048036038101906102bc919061218e565b6109a1565b6040516102ce9190611cbf565b60405180910390f35b6102f160048036038101906102ec919061222e565b610a35565b005b60007f80ac58cd000000000000000000000000000000000000000000000000000000007bffffffffffffffffffffffffffffffffffffffffffffffffffffffff1916827bffffffffffffffffffffffffffffffffffffffffffffffffffffffff191614806103be57507f5b5e139f000000000000000000000000000000000000000000000000000000007bffffffffffffffffffffffffffffffffffffffffffffffffffffffff1916827bffffffffffffffffffffffffffffffffffffffffffffffffffffffff1916145b806103ce57506103cd82610b43565b5b9050919050565b6060600080546103e4906122aa565b80601f0160208091040260200160405190810160405280929190818152602001828054610410906122aa565b801561045d5780601f106104325761010080835404028352916020019161045d565b820191906000526020600020905b81548152906001019060200180831161044057829003601f168201915b5050505050905090565b600061047282610bad565b6004600083815260200190815260200160002060009054906101000a900473ffffffffffffffffffffffffffffffffffffffff169050919050565b60006104b882610645565b90508073ffffffffffffffffffffffffffffffffffffffff168373ffffffffffffffffffffffffffffffffffffffff161415610529576040517f08c379a00000000000000000000000000000000000000000000000000000000081526004016105209061234e565b60405180910390fd5b8073ffffffffffffffffffffffffffffffffffffffff16610548610bf8565b73ffffffffffffffffffffffffffffffffffffffff161480610577575061057681610571610bf8565b6109a1565b5b6105b6576040517f08c379a00000000000000000000000000000000000000000000000000000000081526004016105ad906123e0565b60405180910390fd5b6105c08383610c00565b505050565b6105d66105d0610bf8565b82610cb9565b610615576040517f08c379a000000000000000000000000000000000000000000000000000000000815260040161060c90612472565b60405180910390fd5b610620838383610d4e565b505050565b6106408383836040518060200160405280600081525061082c565b505050565b60008061065183611048565b9050600073ffffffffffffffffffffffffffffffffffffffff168173ffffffffffffffffffffffffffffffffffffffff1614156106c3576040517f08c379a00000000000000000000000000000000000000000000000000000000081526004016106ba906124de565b60405180910390fd5b80915050919050565b60008073ffffffffffffffffffffffffffffffffffffffff168273ffffffffffffffffffffffffffffffffffffffff16141561073d576040517f08c379a000000000000000000000000000000000000000000000000000000000815260040161073490612570565b60405180910390fd5b600360008373ffffffffffffffffffffffffffffffffffffffff1673ffffffffffffffffffffffffffffffffffffffff168152602001908152602001600020549050919050565b606060018054610793906122aa565b80601f01602080910402602001604051908101604052809291908181526020018280546107bf906122aa565b801561080c5780601f106107e15761010080835404028352916020019161080c565b820191906000526020600020905b8154815290600101906020018083116107ef57829003601f168201915b5050505050905090565b610828610821610bf8565b8383611085565b5050565b61083d610837610bf8565b83610cb9565b61087c576040517f08c379a000000000000000000000000000000000000000000000000000000000815260040161087390612472565b60405180910390fd5b610888848484846111f2565b50505050565b606061089982610bad565b60006006600084815260200190815260200160002080546108b9906122aa565b80601f01602080910402602001604051908101604052809291908181526020018280546108e5906122aa565b80156109325780601f1061090757610100808354040283529160200191610932565b820191906000526020600020905b81548152906001019060200180831161091557829003601f168201915b50505050509050600061094361124e565b905060008151141561095957819250505061099c565b60008251111561098e5780826040516020016109769291906125cc565b6040516020818303038152906040529250505061099c565b61099784611265565b925050505b919050565b6000600560008473ffffffffffffffffffffffffffffffffffffffff1673ffffffffffffffffffffffffffffffffffffffff16815260200190815260200160002060008373ffffffffffffffffffffffffffffffffffffffff1673ffffffffffffffffffffffffffffffffffffffff16815260200190815260200160002060009054906101000a900460ff16905092915050565b6000610a4160076112cd565b9050610a4d33826112db565b610a9b8184848080601f016020809104026020016040519081016040528093929190818152602001838380828437600081840152601f19601f820116905080830192505050505050506112f9565b610aa5600761136d565b505050565b610b4081604051602401610abe9190611d73565b6040516020818303038152906040527f41304fac000000000000000000000000000000000000000000000000000000007bffffffffffffffffffffffffffffffffffffffffffffffffffffffff19166020820180517bffffffffffffffffffffffffffffffffffffffffffffffffffffffff8381831617835250505050611383565b50565b60007f01ffc9a7000000000000000000000000000000000000000000000000000000007bffffffffffffffffffffffffffffffffffffffffffffffffffffffff1916827bffffffffffffffffffffffffffffffffffffffffffffffffffffffff1916149050919050565b610bb6816113ac565b610bf5576040517f08c379a0000000000000000000000000000000000000000000000000000000008152600401610bec906124de565b60405180910390fd5b50565b600033905090565b816004600083815260200190815260200160002060006101000a81548173ffffffffffffffffffffffffffffffffffffffff021916908373ffffffffffffffffffffffffffffffffffffffff160217905550808273ffffffffffffffffffffffffffffffffffffffff16610c7383610645565b73ffffffffffffffffffffffffffffffffffffffff167f8c5be1e5ebec7d5bd14f71427d1e84f3dd0314c0f7b2291e5b200ac8c7c3b92560405160405180910390a45050565b600080610cc583610645565b90508073ffffffffffffffffffffffffffffffffffffffff168473ffffffffffffffffffffffffffffffffffffffff161480610d075750610d0681856109a1565b5b80610d4557508373ffffffffffffffffffffffffffffffffffffffff16610d2d84610467565b73ffffffffffffffffffffffffffffffffffffffff16145b91505092915050565b8273ffffffffffffffffffffffffffffffffffffffff16610d6e82610645565b73ffffffffffffffffffffffffffffffffffffffff1614610dc4576040517f08c379a0000000000000000000000000000000000000000000000000000000008152600401610dbb90612662565b60405180910390fd5b600073ffffffffffffffffffffffffffffffffffffffff168273ffffffffffffffffffffffffffffffffffffffff161415610e34576040517f08c379a0000000000000000000000000000000000000000000000000000000008152600401610e2b906126f4565b60405180910390fd5b610e4183838360016113ed565b8273ffffffffffffffffffffffffffffffffffffffff16610e6182610645565b73ffffffffffffffffffffffffffffffffffffffff1614610eb7576040517f08c379a0000000000000000000000000000000000000000000000000000000008152600401610eae90612662565b60405180910390fd5b6004600082815260200190815260200160002060006101000a81549073ffffffffffffffffffffffffffffffffffffffff02191690556001600360008573ffffffffffffffffffffffffffffffffffffffff1673ffffffffffffffffffffffffffffffffffffffff168152602001908152602001600020600082825403925050819055506001600360008473ffffffffffffffffffffffffffffffffffffffff1673ffffffffffffffffffffffffffffffffffffffff16815260200190815260200160002060008282540192505081905550816002600083815260200190815260200160002060006101000a81548173ffffffffffffffffffffffffffffffffffffffff021916908373ffffffffffffffffffffffffffffffffffffffff160217905550808273ffffffffffffffffffffffffffffffffffffffff168473ffffffffffffffffffffffffffffffffffffffff167fddf252ad1be2c89b69c2b068fc378daa952ba7f163c4a11628f55a4df523b3ef60405160405180910390a46110438383836001611513565b505050565b60006002600083815260200190815260200160002060009054906101000a900473ffffffffffffffffffffffffffffffffffffffff169050919050565b8173ffffffffffffffffffffffffffffffffffffffff168373ffffffffffffffffffffffffffffffffffffffff1614156110f4576040517f08c379a00000000000000000000000000000000000000000000000000000000081526004016110eb90612760565b60405180910390fd5b80600560008573ffffffffffffffffffffffffffffffffffffffff1673ffffffffffffffffffffffffffffffffffffffff16815260200190815260200160002060008473ffffffffffffffffffffffffffffffffffffffff1673ffffffffffffffffffffffffffffffffffffffff16815260200190815260200160002060006101000a81548160ff0219169083151502179055508173ffffffffffffffffffffffffffffffffffffffff168373ffffffffffffffffffffffffffffffffffffffff167f17307eab39ab6107e8899845ad3d59bd9653f200f220920489ca2b5937696c31836040516111e59190611cbf565b60405180910390a3505050565b6111fd848484610d4e565b61120984848484611519565b611248576040517f08c379a000000000000000000000000000000000000000000000000000000000815260040161123f906127f2565b60405180910390fd5b50505050565b606060405180602001604052806000815250905090565b606061127082610bad565b600061127a61124e565b9050600081511161129a57604051806020016040528060008152506112c5565b806112a4846116a1565b6040516020016112b59291906125cc565b6040516020818303038152906040525b915050919050565b600081600001549050919050565b6112f5828260405180602001604052806000815250611779565b5050565b611302826113ac565b611341576040517f08c379a000000000000000000000000000000000000000000000000000000000815260040161133890612884565b60405180910390fd5b80600660008481526020019081526020016000209080519060200190611368929190611b68565b505050565b6001816000016000828254019250508190555050565b60008151905060006a636f6e736f6c652e6c6f679050602083016000808483855afa5050505050565b60008073ffffffffffffffffffffffffffffffffffffffff166113ce83611048565b73ffffffffffffffffffffffffffffffffffffffff1614159050919050565b600181111561150d57600073ffffffffffffffffffffffffffffffffffffffff168473ffffffffffffffffffffffffffffffffffffffff16146114815780600360008673ffffffffffffffffffffffffffffffffffffffff1673ffffffffffffffffffffffffffffffffffffffff168152602001908152602001600020600082825461147991906128d3565b925050819055505b600073ffffffffffffffffffffffffffffffffffffffff168373ffffffffffffffffffffffffffffffffffffffff161461150c5780600360008573ffffffffffffffffffffffffffffffffffffffff1673ffffffffffffffffffffffffffffffffffffffff16815260200190815260200160002060008282546115049190612907565b925050819055505b5b50505050565b50505050565b600061153a8473ffffffffffffffffffffffffffffffffffffffff166117d4565b15611694578373ffffffffffffffffffffffffffffffffffffffff1663150b7a02611563610bf8565b8786866040518563ffffffff1660e01b815260040161158594939291906129b2565b6020604051808303816000875af19250505080156115c157506040513d601f19601f820116820180604052508101906115be9190612a13565b60015b611644573d80600081146115f1576040519150601f19603f3d011682016040523d82523d6000602084013e6115f6565b606091505b5060008151141561163c576040517f08c379a0000000000000000000000000000000000000000000000000000000008152600401611633906127f2565b60405180910390fd5b805181602001fd5b63150b7a0260e01b7bffffffffffffffffffffffffffffffffffffffffffffffffffffffff1916817bffffffffffffffffffffffffffffffffffffffffffffffffffffffff191614915050611699565b600190505b949350505050565b6060600060016116b0846117f7565b01905060008167ffffffffffffffff8111156116cf576116ce611fe0565b5b6040519080825280601f01601f1916602001820160405280156117015781602001600182028036833780820191505090505b509050600082602001820190505b60011561176e578080600190039150507f3031323334353637383961626364656600000000000000000000000000000000600a86061a8153600a858161175857611757612a40565b5b04945060008514156117695761176e565b61170f565b819350505050919050565b611783838361194a565b6117906000848484611519565b6117cf576040517f08c379a00000000000000000000000000000000000000000000000000000000081526004016117c6906127f2565b60405180910390fd5b505050565b6000808273ffffffffffffffffffffffffffffffffffffffff163b119050919050565b600080600090507a184f03e93ff9f4daa797ed6e38ed64bf6a1f0100000000000000008310611855577a184f03e93ff9f4daa797ed6e38ed64bf6a1f010000000000000000838161184b5761184a612a40565b5b0492506040810190505b6d04ee2d6d415b85acef81000000008310611892576d04ee2d6d415b85acef8100000000838161188857611887612a40565b5b0492506020810190505b662386f26fc1000083106118c157662386f26fc1000083816118b7576118b6612a40565b5b0492506010810190505b6305f5e10083106118ea576305f5e10083816118e0576118df612a40565b5b0492506008810190505b612710831061190f57612710838161190557611904612a40565b5b0492506004810190505b60648310611932576064838161192857611927612a40565b5b0492506002810190505b600a8310611941576001810190505b80915050919050565b600073ffffffffffffffffffffffffffffffffffffffff168273ffffffffffffffffffffffffffffffffffffffff1614156119ba576040517f08c379a00000000000000000000000000000000000000000000000000000000081526004016119b190612abb565b60405180910390fd5b6119c3816113ac565b15611a03576040517f08c379a00000000000000000000000000000000000000000000000000000000081526004016119fa90612b27565b60405180910390fd5b611a116000838360016113ed565b611a1a816113ac565b15611a5a576040517f08c379a0000000000000000000000000000000000000000000000000000000008152600401611a5190612b27565b60405180910390fd5b6001600360008473ffffffffffffffffffffffffffffffffffffffff1673ffffffffffffffffffffffffffffffffffffffff16815260200190815260200160002060008282540192505081905550816002600083815260200190815260200160002060006101000a81548173ffffffffffffffffffffffffffffffffffffffff021916908373ffffffffffffffffffffffffffffffffffffffff160217905550808273ffffffffffffffffffffffffffffffffffffffff16600073ffffffffffffffffffffffffffffffffffffffff167fddf252ad1be2c89b69c2b068fc378daa952ba7f163c4a11628f55a4df523b3ef60405160405180910390a4611b64600083836001611513565b5050565b828054611b74906122aa565b90600052602060002090601f016020900481019282611b965760008555611bdd565b82601f10611baf57805160ff1916838001178555611bdd565b82800160010185558215611bdd579182015b82811115611bdc578251825591602001919060010190611bc1565b5b509050611bea9190611bee565b5090565b5b80821115611c07576000816000905550600101611bef565b5090565b6000604051905090565b600080fd5b600080fd5b60007fffffffff0000000000000000000000000000000000000000000000000000000082169050919050565b611c5481611c1f565b8114611c5f57600080fd5b50565b600081359050611c7181611c4b565b92915050565b600060208284031215611c8d57611c8c611c15565b5b6000611c9b84828501611c62565b91505092915050565b60008115159050919050565b611cb981611ca4565b82525050565b6000602082019050611cd46000830184611cb0565b92915050565b600081519050919050565b600082825260208201905092915050565b60005b83811015611d14578082015181840152602081019050611cf9565b83811115611d23576000848401525b50505050565b6000601f19601f8301169050919050565b6000611d4582611cda565b611d4f8185611ce5565b9350611d5f818560208601611cf6565b611d6881611d29565b840191505092915050565b60006020820190508181036000830152611d8d8184611d3a565b905092915050565b6000819050919050565b611da881611d95565b8114611db357600080fd5b50565b600081359050611dc581611d9f565b92915050565b600060208284031215611de157611de0611c15565b5b6000611def84828501611db6565b91505092915050565b600073ffffffffffffffffffffffffffffffffffffffff82169050919050565b6000611e2382611df8565b9050919050565b611e3381611e18565b82525050565b6000602082019050611e4e6000830184611e2a565b92915050565b611e5d81611e18565b8114611e6857600080fd5b50565b600081359050611e7a81611e54565b92915050565b60008060408385031215611e9757611e96611c15565b5b6000611ea585828601611e6b565b9250506020611eb685828601611db6565b9150509250929050565b600080600060608486031215611ed957611ed8611c15565b5b6000611ee786828701611e6b565b9350506020611ef886828701611e6b565b9250506040611f0986828701611db6565b9150509250925092565b600060208284031215611f2957611f28611c15565b5b6000611f3784828501611e6b565b91505092915050565b611f4981611d95565b82525050565b6000602082019050611f646000830184611f40565b92915050565b611f7381611ca4565b8114611f7e57600080fd5b50565b600081359050611f9081611f6a565b92915050565b60008060408385031215611fad57611fac611c15565b5b6000611fbb85828601611e6b565b9250506020611fcc85828601611f81565b9150509250929050565b600080fd5b600080fd5b7f4e487b7100000000000000000000000000000000000000000000000000000000600052604160045260246000fd5b61201882611d29565b810181811067ffffffffffffffff8211171561203757612036611fe0565b5b80604052505050565b600061204a611c0b565b9050612056828261200f565b919050565b600067ffffffffffffffff82111561207657612075611fe0565b5b61207f82611d29565b9050602081019050919050565b82818337600083830152505050565b60006120ae6120a98461205b565b612040565b9050828152602081018484840111156120ca576120c9611fdb565b5b6120d584828561208c565b509392505050565b600082601f8301126120f2576120f1611fd6565b5b813561210284826020860161209b565b91505092915050565b6000806000806080858703121561212557612124611c15565b5b600061213387828801611e6b565b945050602061214487828801611e6b565b935050604061215587828801611db6565b925050606085013567ffffffffffffffff81111561217657612175611c1a565b5b612182878288016120dd565b91505092959194509250565b600080604083850312156121a5576121a4611c15565b5b60006121b385828601611e6b565b92505060206121c485828601611e6b565b9150509250929050565b600080fd5b600080fd5b60008083601f8401126121ee576121ed611fd6565b5b8235905067ffffffffffffffff81111561220b5761220a6121ce565b5b602083019150836001820283011115612227576122266121d3565b5b9250929050565b6000806020838503121561224557612244611c15565b5b600083013567ffffffffffffffff81111561226357612262611c1a565b5b61226f858286016121d8565b92509250509250929050565b7f4e487b7100000000000000000000000000000000000000000000000000000000600052602260045260246000fd5b600060028204905060018216806122c257607f821691505b602082108114156122d6576122d561227b565b5b50919050565b7f4552433732313a20617070726f76616c20746f2063757272656e74206f776e6560008201527f7200000000000000000000000000000000000000000000000000000000000000602082015250565b6000612338602183611ce5565b9150612343826122dc565b604082019050919050565b600060208201905081810360008301526123678161232b565b9050919050565b7f4552433732313a20617070726f76652063616c6c6572206973206e6f7420746f60008201527f6b656e206f776e6572206f7220617070726f76656420666f7220616c6c000000602082015250565b60006123ca603d83611ce5565b91506123d58261236e565b604082019050919050565b600060208201905081810360008301526123f9816123bd565b9050919050565b7f4552433732313a2063616c6c6572206973206e6f7420746f6b656e206f776e6560008201527f72206f7220617070726f76656400000000000000000000000000000000000000602082015250565b600061245c602d83611ce5565b915061246782612400565b604082019050919050565b6000602082019050818103600083015261248b8161244f565b9050919050565b7f4552433732313a20696e76616c696420746f6b656e2049440000000000000000600082015250565b60006124c8601883611ce5565b91506124d382612492565b602082019050919050565b600060208201905081810360008301526124f7816124bb565b9050919050565b7f4552433732313a2061646472657373207a65726f206973206e6f74206120766160008201527f6c6964206f776e65720000000000000000000000000000000000000000000000602082015250565b600061255a602983611ce5565b9150612565826124fe565b604082019050919050565b600060208201905081810360008301526125898161254d565b9050919050565b600081905092915050565b60006125a682611cda565b6125b08185612590565b93506125c0818560208601611cf6565b80840191505092915050565b60006125d8828561259b565b91506125e4828461259b565b91508190509392505050565b7f4552433732313a207472616e736665722066726f6d20696e636f72726563742060008201527f6f776e6572000000000000000000000000000000000000000000000000000000602082015250565b600061264c602583611ce5565b9150612657826125f0565b604082019050919050565b6000602082019050818103600083015261267b8161263f565b9050919050565b7f4552433732313a207472616e7366657220746f20746865207a65726f2061646460008201527f7265737300000000000000000000000000000000000000000000000000000000602082015250565b60006126de602483611ce5565b91506126e982612682565b604082019050919050565b6000602082019050818103600083015261270d816126d1565b9050919050565b7f4552433732313a20617070726f766520746f2063616c6c657200000000000000600082015250565b600061274a601983611ce5565b915061275582612714565b602082019050919050565b600060208201905081810360008301526127798161273d565b9050919050565b7f4552433732313a207472616e7366657220746f206e6f6e20455243373231526560008201527f63656976657220696d706c656d656e7465720000000000000000000000000000602082015250565b60006127dc603283611ce5565b91506127e782612780565b604082019050919050565b6000602082019050818103600083015261280b816127cf565b9050919050565b7f45524337323155524953746f726167653a2055524920736574206f66206e6f6e60008201527f6578697374656e7420746f6b656e000000000000000000000000000000000000602082015250565b600061286e602e83611ce5565b915061287982612812565b604082019050919050565b6000602082019050818103600083015261289d81612861565b9050919050565b7f4e487b7100000000000000000000000000000000000000000000000000000000600052601160045260246000fd5b60006128de82611d95565b91506128e983611d95565b9250828210156128fc576128fb6128a4565b5b828203905092915050565b600061291282611d95565b915061291d83611d95565b9250827fffffffffffffffffffffffffffffffffffffffffffffffffffffffffffffffff03821115612952576129516128a4565b5b828201905092915050565b600081519050919050565b600082825260208201905092915050565b60006129848261295d565b61298e8185612968565b935061299e818560208601611cf6565b6129a781611d29565b840191505092915050565b60006080820190506129c76000830187611e2a565b6129d46020830186611e2a565b6129e16040830185611f40565b81810360608301526129f38184612979565b905095945050505050565b600081519050612a0d81611c4b565b92915050565b600060208284031215612a2957612a28611c15565b5b6000612a37848285016129fe565b91505092915050565b7f4e487b7100000000000000000000000000000000000000000000000000000000600052601260045260246000fd5b7f4552433732313a206d696e7420746f20746865207a65726f2061646472657373600082015250565b6000612aa5602083611ce5565b9150612ab082612a6f565b602082019050919050565b60006020820190508181036000830152612ad481612a98565b9050919050565b7f4552433732313a20746f6b656e20616c7265616479206d696e74656400000000600082015250565b6000612b11601c83611ce5565b9150612b1c82612adb565b602082019050919050565b60006020820190508181036000830152612b4081612b04565b905091905056fea264697066735822122094a151bf9ccecf60c274a4dee861a1faddd9d51c4cfdb0ac8a3140ba6543132c64736f6c634300080a003354657374696e672045544820496e646961205477697474657220436f6e7472616374202d2046726f6e74656e64",
  "linkReferences": {},
  "deployedLinkReferences": {}
}